{
  "contractName": "EIP712MetaTransaction",
  "abi": [
    {
      "inputs": [
        {
          "internalType": "string",
          "name": "name",
          "type": "string"
        },
        {
          "internalType": "string",
          "name": "version",
          "type": "string"
        }
      ],
      "stateMutability": "nonpayable",
      "type": "constructor"
    },
    {
      "anonymous": false,
      "inputs": [
        {
          "indexed": false,
          "internalType": "address",
          "name": "userAddress",
          "type": "address"
        },
        {
          "indexed": false,
          "internalType": "address payable",
          "name": "relayerAddress",
          "type": "address"
        },
        {
          "indexed": false,
          "internalType": "bytes",
          "name": "functionSignature",
          "type": "bytes"
        }
      ],
      "name": "MetaTransactionExecuted",
      "type": "event"
    },
    {
      "inputs": [
        {
          "internalType": "address",
          "name": "userAddress",
          "type": "address"
        },
        {
          "internalType": "bytes",
          "name": "functionSignature",
          "type": "bytes"
        },
        {
          "internalType": "bytes32",
          "name": "sigR",
          "type": "bytes32"
        },
        {
          "internalType": "bytes32",
          "name": "sigS",
          "type": "bytes32"
        },
        {
          "internalType": "uint8",
          "name": "sigV",
          "type": "uint8"
        }
      ],
      "name": "executeMetaTransaction",
      "outputs": [
        {
          "internalType": "bytes",
          "name": "",
          "type": "bytes"
        }
      ],
      "stateMutability": "payable",
      "type": "function"
    },
    {
      "inputs": [
        {
          "internalType": "address",
          "name": "user",
          "type": "address"
        }
      ],
      "name": "getNonce",
      "outputs": [
        {
          "internalType": "uint256",
          "name": "nonce",
          "type": "uint256"
        }
      ],
      "stateMutability": "view",
      "type": "function"
    }
  ],
  "bytecode": "0x60806040523480156200001157600080fd5b506040516200125c3803806200125c833981810160405281019062000037919062000134565b81816040518060800160405280604f81526020016200120d604f91398051906020012082805190602001208280519060200120306200007b620000ba60201b60201c565b60001b60405160200162000094959493929190620001c9565b604051602081830303815290604052805190602001206000819055505050505062000330565b600046905090565b6000620000d9620000d3846200025a565b62000226565b905082815260208101848484011115620000f257600080fd5b620000ff848285620002cb565b509392505050565b600082601f8301126200011957600080fd5b81516200012b848260208601620000c2565b91505092915050565b600080604083850312156200014857600080fd5b600083015167ffffffffffffffff8111156200016357600080fd5b620001718582860162000107565b925050602083015167ffffffffffffffff8111156200018f57600080fd5b6200019d8582860162000107565b9150509250929050565b620001b2816200028d565b82525050565b620001c381620002a1565b82525050565b600060a082019050620001e06000830188620001b8565b620001ef6020830187620001b8565b620001fe6040830186620001b8565b6200020d6060830185620001a7565b6200021c6080830184620001b8565b9695505050505050565b6000604051905081810181811067ffffffffffffffff8211171562000250576200024f62000301565b5b8060405250919050565b600067ffffffffffffffff82111562000278576200027762000301565b5b601f19601f8301169050602081019050919050565b60006200029a82620002ab565b9050919050565b6000819050919050565b600073ffffffffffffffffffffffffffffffffffffffff82169050919050565b60005b83811015620002eb578082015181840152602081019050620002ce565b83811115620002fb576000848401525b50505050565b7f4e487b7100000000000000000000000000000000000000000000000000000000600052604160045260246000fd5b610ecd80620003406000396000f3fe6080604052600436106100295760003560e01c80630c53c51c1461002e5780632d0335ab1461005e575b600080fd5b610048600480360381019061004391906106cb565b61009b565b6040516100559190610b07565b60405180910390f35b34801561006a57600080fd5b50610085600480360381019061008091906106a2565b6103bf565b6040516100929190610ba9565b60405180910390f35b606060006100a886610408565b90506000357fffffffff00000000000000000000000000000000000000000000000000000000167bffffffffffffffffffffffffffffffffffffffffffffffffffffffff1916817bffffffffffffffffffffffffffffffffffffffffffffffffffffffff1916141561014f576040517f08c379a000000000000000000000000000000000000000000000000000000000815260040161014690610b49565b60405180910390fd5b60006040518060600160405280600160008b73ffffffffffffffffffffffffffffffffffffffff1673ffffffffffffffffffffffffffffffffffffffff1681526020019081526020016000205481526020018973ffffffffffffffffffffffffffffffffffffffff1681526020018881525090506101d0888288888861042c565b61020f576040517f08c379a000000000000000000000000000000000000000000000000000000000815260040161020690610b89565b60405180910390fd5b61026160018060008b73ffffffffffffffffffffffffffffffffffffffff1673ffffffffffffffffffffffffffffffffffffffff1681526020019081526020016000205461053b90919063ffffffff16565b600160008a73ffffffffffffffffffffffffffffffffffffffff1673ffffffffffffffffffffffffffffffffffffffff168152602001908152602001600020819055506000803073ffffffffffffffffffffffffffffffffffffffff16898b6040516020016102d19291906109e0565b6040516020818303038152906040526040516102ed91906109c9565b6000604051808303816000865af19150503d806000811461032a576040519150601f19603f3d011682016040523d82523d6000602084013e61032f565b606091505b509150915081610374576040517f08c379a000000000000000000000000000000000000000000000000000000000815260040161036b90610b29565b60405180910390fd5b7f5845892132946850460bff5a0083f71031bc5bf9aadcd40f1de79423eac9b10b8a338b6040516103a793929190610a3f565b60405180910390a18094505050505095945050505050565b6000600160008373ffffffffffffffffffffffffffffffffffffffff1673ffffffffffffffffffffffffffffffffffffffff168152602001908152602001600020549050919050565b6000808251141561041f57600060e01b9050610427565b602082015190505b919050565b600080600161044261043d88610551565b6105b9565b848787604051600081526020016040526040516104629493929190610ac2565b6020604051602081039080840390855afa158015610484573d6000803e3d6000fd5b505050602060405103519050600073ffffffffffffffffffffffffffffffffffffffff168173ffffffffffffffffffffffffffffffffffffffff161415610500576040517f08c379a00000000000000000000000000000000000000000000000000000000081526004016104f790610b69565b60405180910390fd5b8673ffffffffffffffffffffffffffffffffffffffff168173ffffffffffffffffffffffffffffffffffffffff161491505095945050505050565b600081836105499190610c68565b905092915050565b6000604051806080016040528060438152602001610e5560439139805190602001208260000151836020015184604001518051906020012060405160200161059c9493929190610a7d565b604051602081830303815290604052805190602001209050919050565b60006105c36105f2565b826040516020016105d5929190610a08565b604051602081830303815290604052805190602001209050919050565b60008054905090565b600061060e61060984610bf5565b610bc4565b90508281526020810184848401111561062657600080fd5b610631848285610d23565b509392505050565b60008135905061064881610e0f565b92915050565b60008135905061065d81610e26565b92915050565b600082601f83011261067457600080fd5b81356106848482602086016105fb565b91505092915050565b60008135905061069c81610e3d565b92915050565b6000602082840312156106b457600080fd5b60006106c284828501610639565b91505092915050565b600080600080600060a086880312156106e357600080fd5b60006106f188828901610639565b955050602086013567ffffffffffffffff81111561070e57600080fd5b61071a88828901610663565b945050604061072b8882890161064e565b935050606061073c8882890161064e565b925050608061074d8882890161068d565b9150509295509295909350565b61076381610cd0565b82525050565b61077281610cbe565b82525050565b61078961078482610cbe565b610d65565b82525050565b61079881610ce2565b82525050565b6107af6107aa82610ce2565b610d77565b82525050565b60006107c082610c25565b6107ca8185610c30565b93506107da818560208601610d32565b6107e381610df1565b840191505092915050565b60006107f982610c25565b6108038185610c41565b9350610813818560208601610d32565b80840191505092915050565b600061082c601c83610c4c565b91507f46756e6374696f6e2063616c6c206e6f74207375636365737366756c000000006000830152602082019050919050565b600061086c603d83610c4c565b91507f66756e6374696f6e5369676e61747572652063616e206e6f74206265206f662060008301527f657865637574654d6574615472616e73616374696f6e206d6574686f640000006020830152604082019050919050565b60006108d2600283610c5d565b91507f19010000000000000000000000000000000000000000000000000000000000006000830152600282019050919050565b6000610912601183610c4c565b91507f496e76616c6964207369676e61747572650000000000000000000000000000006000830152602082019050919050565b6000610952602183610c4c565b91507f5369676e657220616e64207369676e617475726520646f206e6f74206d61746360008301527f68000000000000000000000000000000000000000000000000000000000000006020830152604082019050919050565b6109b481610d0c565b82525050565b6109c381610d16565b82525050565b60006109d582846107ee565b915081905092915050565b60006109ec82856107ee565b91506109f88284610778565b6014820191508190509392505050565b6000610a13826108c5565b9150610a1f828561079e565b602082019150610a2f828461079e565b6020820191508190509392505050565b6000606082019050610a546000830186610769565b610a61602083018561075a565b8181036040830152610a7381846107b5565b9050949350505050565b6000608082019050610a92600083018761078f565b610a9f60208301866109ab565b610aac6040830185610769565b610ab9606083018461078f565b95945050505050565b6000608082019050610ad7600083018761078f565b610ae460208301866109ba565b610af1604083018561078f565b610afe606083018461078f565b95945050505050565b60006020820190508181036000830152610b2181846107b5565b905092915050565b60006020820190508181036000830152610b428161081f565b9050919050565b60006020820190508181036000830152610b628161085f565b9050919050565b60006020820190508181036000830152610b8281610905565b9050919050565b60006020820190508181036000830152610ba281610945565b9050919050565b6000602082019050610bbe60008301846109ab565b92915050565b6000604051905081810181811067ffffffffffffffff82111715610beb57610bea610dc2565b5b8060405250919050565b600067ffffffffffffffff821115610c1057610c0f610dc2565b5b601f19601f8301169050602081019050919050565b600081519050919050565b600082825260208201905092915050565b600081905092915050565b600082825260208201905092915050565b600081905092915050565b6000610c7382610d0c565b9150610c7e83610d0c565b9250827fffffffffffffffffffffffffffffffffffffffffffffffffffffffffffffffff03821115610cb357610cb2610d93565b5b828201905092915050565b6000610cc982610cec565b9050919050565b6000610cdb82610cec565b9050919050565b6000819050919050565b600073ffffffffffffffffffffffffffffffffffffffff82169050919050565b6000819050919050565b600060ff82169050919050565b82818337600083830152505050565b60005b83811015610d50578082015181840152602081019050610d35565b83811115610d5f576000848401525b50505050565b6000610d7082610d81565b9050919050565b6000819050919050565b6000610d8c82610e02565b9050919050565b7f4e487b7100000000000000000000000000000000000000000000000000000000600052601160045260246000fd5b7f4e487b7100000000000000000000000000000000000000000000000000000000600052604160045260246000fd5b6000601f19601f8301169050919050565b60008160601b9050919050565b610e1881610cbe565b8114610e2357600080fd5b50565b610e2f81610ce2565b8114610e3a57600080fd5b50565b610e4681610d16565b8114610e5157600080fd5b5056fe4d6574615472616e73616374696f6e2875696e74323536206e6f6e63652c616464726573732066726f6d2c62797465732066756e6374696f6e5369676e617475726529a2646970667358221220b9720f5c45b9be42eb2528e6e35869736fead755507ddb587497cbc98100151464736f6c63430008000033454950373132446f6d61696e28737472696e67206e616d652c737472696e672076657273696f6e2c6164647265737320766572696679696e67436f6e74726163742c627974657333322073616c7429",
  "immutableReferences": {},
  "source": "//SPDX-License-Identifier: MIT\r\npragma solidity 0.8.0;\r\n\r\nimport \"./EIP712Base.sol\";\r\nimport \"./SafeMath.sol\";\r\n\r\ncontract EIP712MetaTransaction is EIP712Base {\r\n    using SafeMath for uint256;\r\n    bytes32 private constant META_TRANSACTION_TYPEHASH = keccak256(bytes(\"MetaTransaction(uint256 nonce,address from,bytes functionSignature)\"));\r\n\r\n    event MetaTransactionExecuted(address userAddress, address payable relayerAddress, bytes functionSignature);\r\n    mapping(address => uint256) private nonces;\r\n\r\n    /*\r\n     * Meta transaction structure.\r\n     * No point of including value field here as if user is doing value transfer then he has the funds to pay for gas\r\n     * He should call the desired function directly in that case.\r\n     */\r\n    struct MetaTransaction {\r\n        uint256 nonce;\r\n        address from;\r\n        bytes functionSignature;\r\n    }\r\n\r\n    constructor(string memory name, string memory version) EIP712Base(name, version) {}\r\n\r\n    function convertBytesToBytes4(bytes memory inBytes) internal pure returns (bytes4 outBytes4) {\r\n        if (inBytes.length == 0) {\r\n            return 0x0;\r\n        }\r\n\r\n        assembly {\r\n            outBytes4 := mload(add(inBytes, 32))\r\n        }\r\n    }\r\n\r\n    function executeMetaTransaction(address userAddress,\r\n        bytes memory functionSignature, bytes32 sigR, bytes32 sigS, uint8 sigV) public payable returns(bytes memory) {\r\n        bytes4 destinationFunctionSig = convertBytesToBytes4(functionSignature);\r\n        require(destinationFunctionSig != msg.sig, \"functionSignature can not be of executeMetaTransaction method\");\r\n        MetaTransaction memory metaTx = MetaTransaction({\r\n            nonce: nonces[userAddress],\r\n            from: userAddress,\r\n            functionSignature: functionSignature\r\n        });\r\n        require(verify(userAddress, metaTx, sigR, sigS, sigV), \"Signer and signature do not match\");\r\n        nonces[userAddress] = nonces[userAddress].add(1);\r\n        // Append userAddress at the end to extract it from calling context\r\n        (bool success, bytes memory returnData) = address(this).call(abi.encodePacked(functionSignature, userAddress));\r\n\r\n        require(success, \"Function call not successful\");\r\n        emit MetaTransactionExecuted(userAddress, payable(msg.sender), functionSignature);\r\n        return returnData;\r\n    }\r\n\r\n    function hashMetaTransaction(MetaTransaction memory metaTx) internal pure returns (bytes32) {\r\n        return keccak256(abi.encode(\r\n            META_TRANSACTION_TYPEHASH,\r\n            metaTx.nonce,\r\n            metaTx.from,\r\n            keccak256(metaTx.functionSignature)\r\n        ));\r\n    }\r\n\r\n    function getNonce(address user) external view returns(uint256 nonce) {\r\n        nonce = nonces[user];\r\n    }\r\n\r\n    function verify(address user, MetaTransaction memory metaTx, bytes32 sigR, bytes32 sigS, uint8 sigV) internal view returns (bool) {\r\n        address signer = ecrecover(toTypedMessageHash(hashMetaTransaction(metaTx)), sigV, sigR, sigS);\r\n        require(signer != address(0), \"Invalid signature\");\r\n        return signer == user;\r\n    }\r\n\r\n    function msgSender() internal view returns(address sender) {\r\n        if(msg.sender == address(this)) {\r\n            bytes memory array = msg.data;\r\n            uint256 index = msg.data.length;\r\n            assembly {\r\n                // Load the 32 bytes word from memory with the address on the lower 20 bytes, and mask those.\r\n                sender := and(mload(add(array, index)), 0xffffffffffffffffffffffffffffffffffffffff)\r\n            }\r\n        } else {\r\n            sender = msg.sender;\r\n        }\r\n        return sender;\r\n    }\r\n}\r\n",
  "sourcePath": "C:\\Mansi\\hacks\\KhabriChain\\frontend\\now-ui-kit-react-main\\contracts\\EIP712MetaTransaction.sol",
  "compiler": {
    "name": "solc",
    "version": "0.8.0+commit.c7dfd78e.Emscripten.clang"
  },
  "schemaVersion": "3.4.4",
  "updatedAt": "2023-03-11T04:21:54.858Z",
  "devdoc": {
    "kind": "dev",
    "methods": {},
    "version": 1
  },
  "userdoc": {
    "kind": "user",
    "methods": {},
    "version": 1
  }
}