{
  "contractName": "TipOff",
  "abi": [
    {
      "inputs": [
        {
          "internalType": "uint256",
          "name": "instance",
          "type": "uint256"
        },
        {
          "internalType": "string",
          "name": "tipid",
          "type": "string"
        },
        {
          "internalType": "uint256",
          "name": "tipamt",
          "type": "uint256"
        }
      ],
      "name": "approveTip",
      "outputs": [],
      "stateMutability": "payable",
      "type": "function"
    },
    {
      "inputs": [
        {
          "internalType": "address",
          "name": "userAddress",
          "type": "address"
        },
        {
          "internalType": "bytes",
          "name": "functionSignature",
          "type": "bytes"
        },
        {
          "internalType": "bytes32",
          "name": "sigR",
          "type": "bytes32"
        },
        {
          "internalType": "bytes32",
          "name": "sigS",
          "type": "bytes32"
        },
        {
          "internalType": "uint8",
          "name": "sigV",
          "type": "uint8"
        }
      ],
      "name": "executeMetaTransaction",
      "outputs": [
        {
          "internalType": "bytes",
          "name": "",
          "type": "bytes"
        }
      ],
      "stateMutability": "payable",
      "type": "function"
    },
    {
      "inputs": [
        {
          "internalType": "uint256",
          "name": "instance",
          "type": "uint256"
        },
        {
          "internalType": "string",
          "name": "aadharhash",
          "type": "string"
        },
        {
          "internalType": "address",
          "name": "caller",
          "type": "address"
        }
      ],
      "name": "onboard",
      "outputs": [],
      "stateMutability": "payable",
      "type": "function"
    },
    {
      "inputs": [
        {
          "internalType": "contract TipToken",
          "name": "tokenContract",
          "type": "address"
        }
      ],
      "name": "registerNewContract",
      "outputs": [],
      "stateMutability": "payable",
      "type": "function"
    },
    {
      "inputs": [
        {
          "internalType": "uint256",
          "name": "instance",
          "type": "uint256"
        },
        {
          "internalType": "string",
          "name": "tipid",
          "type": "string"
        },
        {
          "internalType": "uint256",
          "name": "tipamt",
          "type": "uint256"
        }
      ],
      "name": "rejectTip",
      "outputs": [],
      "stateMutability": "payable",
      "type": "function"
    },
    {
      "inputs": [],
      "stateMutability": "nonpayable",
      "type": "constructor"
    },
    {
      "anonymous": false,
      "inputs": [
        {
          "indexed": false,
          "internalType": "address",
          "name": "userAddress",
          "type": "address"
        },
        {
          "indexed": false,
          "internalType": "address payable",
          "name": "relayerAddress",
          "type": "address"
        },
        {
          "indexed": false,
          "internalType": "bytes",
          "name": "functionSignature",
          "type": "bytes"
        }
      ],
      "name": "MetaTransactionExecuted",
      "type": "event"
    },
    {
      "inputs": [
        {
          "internalType": "uint256",
          "name": "instance1",
          "type": "uint256"
        },
        {
          "internalType": "uint256",
          "name": "instance2",
          "type": "uint256"
        },
        {
          "internalType": "uint256",
          "name": "amounttoswap",
          "type": "uint256"
        },
        {
          "internalType": "address",
          "name": "beneficiary",
          "type": "address"
        }
      ],
      "name": "swapper",
      "outputs": [],
      "stateMutability": "payable",
      "type": "function"
    },
    {
      "inputs": [
        {
          "internalType": "uint256",
          "name": "instance",
          "type": "uint256"
        },
        {
          "internalType": "string",
          "name": "tipid",
          "type": "string"
        },
        {
          "internalType": "uint256",
          "name": "tipamt",
          "type": "uint256"
        },
        {
          "internalType": "address payable",
          "name": "tipper",
          "type": "address"
        },
        {
          "internalType": "address",
          "name": "police",
          "type": "address"
        }
      ],
      "name": "tipoff",
      "outputs": [],
      "stateMutability": "payable",
      "type": "function"
    },
    {
      "anonymous": false,
      "inputs": [
        {
          "indexed": false,
          "internalType": "address",
          "name": "sender",
          "type": "address"
        },
        {
          "indexed": false,
          "internalType": "address",
          "name": "receiver",
          "type": "address"
        },
        {
          "indexed": false,
          "internalType": "uint256",
          "name": "amount",
          "type": "uint256"
        }
      ],
      "name": "transferred",
      "type": "event"
    },
    {
      "inputs": [],
      "name": "checkIfAlreadyRegistered",
      "outputs": [
        {
          "internalType": "bool",
          "name": "",
          "type": "bool"
        }
      ],
      "stateMutability": "view",
      "type": "function"
    },
    {
      "inputs": [],
      "name": "contractsregistered",
      "outputs": [
        {
          "internalType": "uint256",
          "name": "",
          "type": "uint256"
        }
      ],
      "stateMutability": "view",
      "type": "function"
    },
    {
      "inputs": [
        {
          "internalType": "address",
          "name": "user",
          "type": "address"
        }
      ],
      "name": "getNonce",
      "outputs": [
        {
          "internalType": "uint256",
          "name": "nonce",
          "type": "uint256"
        }
      ],
      "stateMutability": "view",
      "type": "function"
    },
    {
      "inputs": [
        {
          "internalType": "address",
          "name": "police",
          "type": "address"
        }
      ],
      "name": "getTipsByPoliceStation",
      "outputs": [
        {
          "components": [
            {
              "internalType": "string",
              "name": "tipid",
              "type": "string"
            },
            {
              "internalType": "uint256",
              "name": "tipstatus",
              "type": "uint256"
            },
            {
              "internalType": "address payable",
              "name": "tipsender",
              "type": "address"
            }
          ],
          "internalType": "struct TipOff.Tipof[]",
          "name": "",
          "type": "tuple[]"
        }
      ],
      "stateMutability": "view",
      "type": "function"
    },
    {
      "inputs": [],
      "name": "getTipsByUser",
      "outputs": [
        {
          "components": [
            {
              "internalType": "string",
              "name": "tipid",
              "type": "string"
            },
            {
              "internalType": "uint256",
              "name": "tipstatus",
              "type": "uint256"
            },
            {
              "internalType": "address payable",
              "name": "tipsender",
              "type": "address"
            }
          ],
          "internalType": "struct TipOff.Tipof[]",
          "name": "",
          "type": "tuple[]"
        }
      ],
      "stateMutability": "view",
      "type": "function"
    },
    {
      "inputs": [
        {
          "internalType": "string",
          "name": "",
          "type": "string"
        }
      ],
      "name": "history",
      "outputs": [
        {
          "internalType": "string",
          "name": "tipid",
          "type": "string"
        },
        {
          "internalType": "uint256",
          "name": "tipstatus",
          "type": "uint256"
        },
        {
          "internalType": "address payable",
          "name": "tipsender",
          "type": "address"
        }
      ],
      "stateMutability": "view",
      "type": "function"
    },
    {
      "inputs": [
        {
          "internalType": "address",
          "name": "",
          "type": "address"
        }
      ],
      "name": "policeTipCount",
      "outputs": [
        {
          "internalType": "uint256",
          "name": "",
          "type": "uint256"
        }
      ],
      "stateMutability": "view",
      "type": "function"
    },
    {
      "inputs": [
        {
          "internalType": "address",
          "name": "",
          "type": "address"
        },
        {
          "internalType": "uint256",
          "name": "",
          "type": "uint256"
        }
      ],
      "name": "policeTipIds",
      "outputs": [
        {
          "internalType": "string",
          "name": "",
          "type": "string"
        }
      ],
      "stateMutability": "view",
      "type": "function"
    },
    {
      "inputs": [
        {
          "internalType": "address",
          "name": "",
          "type": "address"
        },
        {
          "internalType": "string",
          "name": "",
          "type": "string"
        }
      ],
      "name": "policeToTips",
      "outputs": [
        {
          "internalType": "string",
          "name": "tipid",
          "type": "string"
        },
        {
          "internalType": "uint256",
          "name": "tipstatus",
          "type": "uint256"
        },
        {
          "internalType": "address payable",
          "name": "tipsender",
          "type": "address"
        }
      ],
      "stateMutability": "view",
      "type": "function"
    },
    {
      "inputs": [
        {
          "internalType": "address",
          "name": "",
          "type": "address"
        }
      ],
      "name": "registeredTippers",
      "outputs": [
        {
          "internalType": "string",
          "name": "",
          "type": "string"
        }
      ],
      "stateMutability": "view",
      "type": "function"
    },
    {
      "inputs": [
        {
          "internalType": "uint256",
          "name": "",
          "type": "uint256"
        }
      ],
      "name": "tokencontractinstances",
      "outputs": [
        {
          "internalType": "contract TipToken",
          "name": "",
          "type": "address"
        },
        {
          "internalType": "uint256",
          "name": "",
          "type": "uint256"
        }
      ],
      "stateMutability": "view",
      "type": "function"
    },
    {
      "inputs": [
        {
          "internalType": "address",
          "name": "",
          "type": "address"
        }
      ],
      "name": "userTipCount",
      "outputs": [
        {
          "internalType": "uint256",
          "name": "",
          "type": "uint256"
        }
      ],
      "stateMutability": "view",
      "type": "function"
    },
    {
      "inputs": [
        {
          "internalType": "address",
          "name": "",
          "type": "address"
        },
        {
          "internalType": "uint256",
          "name": "",
          "type": "uint256"
        }
      ],
      "name": "userTipIds",
      "outputs": [
        {
          "internalType": "string",
          "name": "",
          "type": "string"
        }
      ],
      "stateMutability": "view",
      "type": "function"
    },
    {
      "inputs": [
        {
          "internalType": "address",
          "name": "",
          "type": "address"
        },
        {
          "internalType": "address",
          "name": "",
          "type": "address"
        },
        {
          "internalType": "string",
          "name": "",
          "type": "string"
        }
      ],
      "name": "userToTips",
      "outputs": [
        {
          "internalType": "string",
          "name": "tipid",
          "type": "string"
        },
        {
          "internalType": "uint256",
          "name": "tipstatus",
          "type": "uint256"
        },
        {
          "internalType": "address payable",
          "name": "tipsender",
          "type": "address"
        }
      ],
      "stateMutability": "view",
      "type": "function"
    }
  ],
  "bytecode": "0x608060405260006004553480156200001657600080fd5b506040518060400160405280600681526020017f5469704f666600000000000000000000000000000000000000000000000000008152506040518060400160405280600181526020017f310000000000000000000000000000000000000000000000000000000000000081525081816040518060800160405280604f815260200162002313604f9139805190602001208280519060200120828051906020012030620000c76200014760201b60201c565b60001b604051602001620000e095949392919062000171565b604051602081830303815290604052805190602001206000819055505050505033600260006101000a81548173ffffffffffffffffffffffffffffffffffffffff021916908373ffffffffffffffffffffffffffffffffffffffff1602179055506200020c565b600046905090565b6200015a81620001ce565b82525050565b6200016b81620001e2565b82525050565b600060a08201905062000188600083018862000160565b62000197602083018762000160565b620001a6604083018662000160565b620001b560608301856200014f565b620001c4608083018462000160565b9695505050505050565b6000620001db82620001ec565b9050919050565b6000819050919050565b600073ffffffffffffffffffffffffffffffffffffffff82169050919050565b6120f7806200021c6000396000f3fe6080604052600436106100c25760003560e01c80633ff566501161007f578063b0e96a1b11610059578063b0e96a1b1461025c578063bc12286d14610287578063c6e33d65146102a3578063fd05900c146102bf576100c2565b80633ff56650146101e657806391aa481614610202578063a7a38f0b1461021e576100c2565b80630c53c51c146100c75780632be522c2146100f75780632d0335ab14610113578063320cc63814610150578063353494f51461016c5780633d20feee146101a9575b600080fd5b6100e160048036038101906100dc91906113bd565b6102fc565b6040516100ee9190611bcc565b60405180910390f35b610111600480360381019061010c91906115ab565b610620565b005b34801561011f57600080fd5b5061013a60048036038101906101359190611394565b6107cc565b6040516101479190611c89565b60405180910390f35b61016a6004803603810190610165919061156f565b610815565b005b34801561017857600080fd5b50610193600480360381019061018e91906114df565b610961565b6040516101a09190611bee565b60405180910390f35b3480156101b557600080fd5b506101d060048036038101906101cb919061149e565b610994565b6040516101dd9190611a29565b60405180910390f35b61020060048036038101906101fb9190611475565b6109dd565b005b61021c60048036038101906102179190611508565b610a4e565b005b34801561022a57600080fd5b50610245600480360381019061024091906114df565b610bf4565b604051610253929190611ca4565b60405180910390f35b34801561026857600080fd5b50610271610c38565b60405161027e9190611c89565b60405180910390f35b6102a1600480360381019061029c919061165d565b610c3e565b005b6102bd60048036038101906102b891906115fa565b610de0565b005b3480156102cb57600080fd5b506102e660048036038101906102e1919061149e565b610fb0565b6040516102f39190611b27565b60405180910390f35b606060006103098661103e565b90506000357fffffffff00000000000000000000000000000000000000000000000000000000167bffffffffffffffffffffffffffffffffffffffffffffffffffffffff1916817bffffffffffffffffffffffffffffffffffffffffffffffffffffffff191614156103b0576040517f08c379a00000000000000000000000000000000000000000000000000000000081526004016103a790611c29565b60405180910390fd5b60006040518060600160405280600160008b73ffffffffffffffffffffffffffffffffffffffff1673ffffffffffffffffffffffffffffffffffffffff1681526020019081526020016000205481526020018973ffffffffffffffffffffffffffffffffffffffff1681526020018881525090506104318882888888611062565b610470576040517f08c379a000000000000000000000000000000000000000000000000000000000815260040161046790611c69565b60405180910390fd5b6104c260018060008b73ffffffffffffffffffffffffffffffffffffffff1673ffffffffffffffffffffffffffffffffffffffff1681526020019081526020016000205461117190919063ffffffff16565b600160008a73ffffffffffffffffffffffffffffffffffffffff1673ffffffffffffffffffffffffffffffffffffffff168152602001908152602001600020819055506000803073ffffffffffffffffffffffffffffffffffffffff16898b6040516020016105329291906119b3565b60405160208183030381529060405260405161054e919061199c565b6000604051808303816000865af19150503d806000811461058b576040519150601f19603f3d011682016040523d82523d6000602084013e610590565b606091505b5091509150816105d5576040517f08c379a00000000000000000000000000000000000000000000000000000000081526004016105cc90611c09565b60405180910390fd5b7f5845892132946850460bff5a0083f71031bc5bf9aadcd40f1de79423eac9b10b8a338b60405161060893929190611ab2565b60405180910390a18094505050505095945050505050565b600060066000848152602001908152602001600020604051806040016040529081600082015481526020016001820160009054906101000a900473ffffffffffffffffffffffffffffffffffffffff1673ffffffffffffffffffffffffffffffffffffffff1673ffffffffffffffffffffffffffffffffffffffff1681525050905060003090506003600086815260200190815260200160002060009054906101000a900473ffffffffffffffffffffffffffffffffffffffff1673ffffffffffffffffffffffffffffffffffffffff16633ccc74858284602001516001876107099190611dac565b6040518463ffffffff1660e01b815260040161072793929190611af0565b602060405180830381600087803b15801561074157600080fd5b505af1158015610755573d6000803e3d6000fd5b505050506040513d601f19601f82011682018060405250810190610779919061144c565b507f8baf29b4b5af24ec8170355f2819a9135840321dd4e65b88a080dfc3054fe99c8183602001516001866107ae9190611dac565b6040516107bd93929190611af0565b60405180910390a15050505050565b6000600160008373ffffffffffffffffffffffffffffffffffffffff1673ffffffffffffffffffffffffffffffffffffffff168152602001908152602001600020549050919050565b60003090506003600084815260200190815260200160002060009054906101000a900473ffffffffffffffffffffffffffffffffffffffff1673ffffffffffffffffffffffffffffffffffffffff16633ccc748582600260009054906101000a900473ffffffffffffffffffffffffffffffffffffffff16856040518463ffffffff1660e01b81526004016108ac93929190611af0565b602060405180830381600087803b1580156108c657600080fd5b505af11580156108da573d6000803e3d6000fd5b505050506040513d601f19601f820116820180604052508101906108fe919061144c565b507f8baf29b4b5af24ec8170355f2819a9135840321dd4e65b88a080dfc3054fe99c81600260009054906101000a900473ffffffffffffffffffffffffffffffffffffffff168460405161095493929190611af0565b60405180910390a1505050565b60036020528060005260406000206000915054906101000a900473ffffffffffffffffffffffffffffffffffffffff1681565b6005818051602081018201805184825260208301602085012081835280955050505050506000915054906101000a900473ffffffffffffffffffffffffffffffffffffffff1681565b8060036000600454815260200190815260200160002060006101000a81548173ffffffffffffffffffffffffffffffffffffffff021916908373ffffffffffffffffffffffffffffffffffffffff160217905550600160046000828254610a449190611dac565b9250508190555050565b80600583604051610a5f91906119db565b908152602001604051809103902060006101000a81548173ffffffffffffffffffffffffffffffffffffffff021916908373ffffffffffffffffffffffffffffffffffffffff1602179055506003600084815260200190815260200160002060009054906101000a900473ffffffffffffffffffffffffffffffffffffffff1673ffffffffffffffffffffffffffffffffffffffff16633ccc7485600260009054906101000a900473ffffffffffffffffffffffffffffffffffffffff1683600a6040518463ffffffff1660e01b8152600401610b3e93929190611a44565b602060405180830381600087803b158015610b5857600080fd5b505af1158015610b6c573d6000803e3d6000fd5b505050506040513d601f19601f82011682018060405250810190610b90919061144c565b507f8baf29b4b5af24ec8170355f2819a9135840321dd4e65b88a080dfc3054fe99c600260009054906101000a900473ffffffffffffffffffffffffffffffffffffffff1682600a604051610be793929190611a44565b60405180910390a1505050565b60066020528060005260406000206000915090508060000154908060010160009054906101000a900473ffffffffffffffffffffffffffffffffffffffff16905082565b60045481565b600060405180604001604052808581526020018373ffffffffffffffffffffffffffffffffffffffff16815250905080600660008681526020019081526020016000206000820151816000015560208201518160010160006101000a81548173ffffffffffffffffffffffffffffffffffffffff021916908373ffffffffffffffffffffffffffffffffffffffff16021790555090505060003090506003600087815260200190815260200160002060009054906101000a900473ffffffffffffffffffffffffffffffffffffffff1673ffffffffffffffffffffffffffffffffffffffff16633ccc74858483876040518463ffffffff1660e01b8152600401610d4a93929190611a7b565b602060405180830381600087803b158015610d6457600080fd5b505af1158015610d78573d6000803e3d6000fd5b505050506040513d601f19601f82011682018060405250810190610d9c919061144c565b507f8baf29b4b5af24ec8170355f2819a9135840321dd4e65b88a080dfc3054fe99c838286604051610dd093929190611a7b565b60405180910390a1505050505050565b6003600085815260200190815260200160002060009054906101000a900473ffffffffffffffffffffffffffffffffffffffff1673ffffffffffffffffffffffffffffffffffffffff16633ccc748582600260009054906101000a900473ffffffffffffffffffffffffffffffffffffffff16856040518463ffffffff1660e01b8152600401610e7293929190611af0565b602060405180830381600087803b158015610e8c57600080fd5b505af1158015610ea0573d6000803e3d6000fd5b505050506040513d601f19601f82011682018060405250810190610ec4919061144c565b506003600084815260200190815260200160002060009054906101000a900473ffffffffffffffffffffffffffffffffffffffff1673ffffffffffffffffffffffffffffffffffffffff16633ccc7485600260009054906101000a900473ffffffffffffffffffffffffffffffffffffffff1683856040518463ffffffff1660e01b8152600401610f5793929190611a7b565b602060405180830381600087803b158015610f7157600080fd5b505af1158015610f85573d6000803e3d6000fd5b505050506040513d601f19601f82011682018060405250810190610fa9919061144c565b5050505050565b600080600583604051610fc391906119db565b908152602001604051809103902060009054906101000a900473ffffffffffffffffffffffffffffffffffffffff169050600073ffffffffffffffffffffffffffffffffffffffff168173ffffffffffffffffffffffffffffffffffffffff161415611033576000915050611039565b60019150505b919050565b6000808251141561105557600060e01b905061105d565b602082015190505b919050565b600080600161107861107388611187565b6111ef565b848787604051600081526020016040526040516110989493929190611b87565b6020604051602081039080840390855afa1580156110ba573d6000803e3d6000fd5b505050602060405103519050600073ffffffffffffffffffffffffffffffffffffffff168173ffffffffffffffffffffffffffffffffffffffff161415611136576040517f08c379a000000000000000000000000000000000000000000000000000000000815260040161112d90611c49565b60405180910390fd5b8673ffffffffffffffffffffffffffffffffffffffff168173ffffffffffffffffffffffffffffffffffffffff161491505095945050505050565b6000818361117f9190611dac565b905092915050565b600060405180608001604052806043815260200161207f6043913980519060200120826000015183602001518460400151805190602001206040516020016111d29493929190611b42565b604051602081830303815290604052805190602001209050919050565b60006111f9611228565b8260405160200161120b9291906119f2565b604051602081830303815290604052805190602001209050919050565b60008054905090565b600061124461123f84611cfe565b611ccd565b90508281526020810184848401111561125c57600080fd5b611267848285611ef1565b509392505050565b600061128261127d84611d2e565b611ccd565b90508281526020810184848401111561129a57600080fd5b6112a5848285611ef1565b509392505050565b6000813590506112bc81611fdd565b92915050565b6000813590506112d181611ff4565b92915050565b6000815190506112e68161200b565b92915050565b6000813590506112fb81612022565b92915050565b600082601f83011261131257600080fd5b8135611322848260208601611231565b91505092915050565b60008135905061133a81612039565b92915050565b600082601f83011261135157600080fd5b813561136184826020860161126f565b91505092915050565b60008135905061137981612050565b92915050565b60008135905061138e81612067565b92915050565b6000602082840312156113a657600080fd5b60006113b4848285016112ad565b91505092915050565b600080600080600060a086880312156113d557600080fd5b60006113e3888289016112ad565b955050602086013567ffffffffffffffff81111561140057600080fd5b61140c88828901611301565b945050604061141d888289016112ec565b935050606061142e888289016112ec565b925050608061143f8882890161137f565b9150509295509295909350565b60006020828403121561145e57600080fd5b600061146c848285016112d7565b91505092915050565b60006020828403121561148757600080fd5b60006114958482850161132b565b91505092915050565b6000602082840312156114b057600080fd5b600082013567ffffffffffffffff8111156114ca57600080fd5b6114d684828501611340565b91505092915050565b6000602082840312156114f157600080fd5b60006114ff8482850161136a565b91505092915050565b60008060006060848603121561151d57600080fd5b600061152b8682870161136a565b935050602084013567ffffffffffffffff81111561154857600080fd5b61155486828701611340565b9250506040611565868287016112ad565b9150509250925092565b6000806040838503121561158257600080fd5b60006115908582860161136a565b92505060206115a18582860161136a565b9150509250929050565b6000806000606084860312156115c057600080fd5b60006115ce8682870161136a565b93505060206115df8682870161136a565b92505060406115f08682870161136a565b9150509250925092565b6000806000806080858703121561161057600080fd5b600061161e8782880161136a565b945050602061162f8782880161136a565b93505060406116408782880161136a565b9250506060611651878288016112ad565b91505092959194509250565b6000806000806080858703121561167357600080fd5b60006116818782880161136a565b94505060206116928782880161136a565b93505060406116a38782880161136a565b92505060606116b4878288016112c2565b91505092959194509250565b6116c981611e85565b82525050565b6116d881611e14565b82525050565b6116e781611e02565b82525050565b6116fe6116f982611e02565b611f33565b82525050565b61170d81611e26565b82525050565b61171c81611e32565b82525050565b61173361172e82611e32565b611f45565b82525050565b600061174482611d5e565b61174e8185611d74565b935061175e818560208601611f00565b61176781611fbf565b840191505092915050565b600061177d82611d5e565b6117878185611d85565b9350611797818560208601611f00565b80840191505092915050565b6117ac81611e97565b82525050565b6117bb81611ebb565b82525050565b60006117cc82611d69565b6117d68185611da1565b93506117e6818560208601611f00565b80840191505092915050565b60006117ff601c83611d90565b91507f46756e6374696f6e2063616c6c206e6f74207375636365737366756c000000006000830152602082019050919050565b600061183f603d83611d90565b91507f66756e6374696f6e5369676e61747572652063616e206e6f74206265206f662060008301527f657865637574654d6574615472616e73616374696f6e206d6574686f640000006020830152604082019050919050565b60006118a5600283611da1565b91507f19010000000000000000000000000000000000000000000000000000000000006000830152600282019050919050565b60006118e5601183611d90565b91507f496e76616c6964207369676e61747572650000000000000000000000000000006000830152602082019050919050565b6000611925602183611d90565b91507f5369676e657220616e64207369676e617475726520646f206e6f74206d61746360008301527f68000000000000000000000000000000000000000000000000000000000000006020830152604082019050919050565b61198781611e6e565b82525050565b61199681611e78565b82525050565b60006119a88284611772565b915081905092915050565b60006119bf8285611772565b91506119cb82846116ed565b6014820191508190509392505050565b60006119e782846117c1565b915081905092915050565b60006119fd82611898565b9150611a098285611722565b602082019150611a198284611722565b6020820191508190509392505050565b6000602082019050611a3e60008301846116de565b92915050565b6000606082019050611a5960008301866116c0565b611a6660208301856116de565b611a7360408301846117b2565b949350505050565b6000606082019050611a9060008301866116c0565b611a9d60208301856116de565b611aaa604083018461197e565b949350505050565b6000606082019050611ac760008301866116de565b611ad460208301856116cf565b8181036040830152611ae68184611739565b9050949350505050565b6000606082019050611b0560008301866116de565b611b1260208301856116c0565b611b1f604083018461197e565b949350505050565b6000602082019050611b3c6000830184611704565b92915050565b6000608082019050611b576000830187611713565b611b64602083018661197e565b611b7160408301856116de565b611b7e6060830184611713565b95945050505050565b6000608082019050611b9c6000830187611713565b611ba9602083018661198d565b611bb66040830185611713565b611bc36060830184611713565b95945050505050565b60006020820190508181036000830152611be68184611739565b905092915050565b6000602082019050611c0360008301846117a3565b92915050565b60006020820190508181036000830152611c22816117f2565b9050919050565b60006020820190508181036000830152611c4281611832565b9050919050565b60006020820190508181036000830152611c62816118d8565b9050919050565b60006020820190508181036000830152611c8281611918565b9050919050565b6000602082019050611c9e600083018461197e565b92915050565b6000604082019050611cb9600083018561197e565b611cc660208301846116cf565b9392505050565b6000604051905081810181811067ffffffffffffffff82111715611cf457611cf3611f90565b5b8060405250919050565b600067ffffffffffffffff821115611d1957611d18611f90565b5b601f19601f8301169050602081019050919050565b600067ffffffffffffffff821115611d4957611d48611f90565b5b601f19601f8301169050602081019050919050565b600081519050919050565b600081519050919050565b600082825260208201905092915050565b600081905092915050565b600082825260208201905092915050565b600081905092915050565b6000611db782611e6e565b9150611dc283611e6e565b9250827fffffffffffffffffffffffffffffffffffffffffffffffffffffffffffffffff03821115611df757611df6611f61565b5b828201905092915050565b6000611e0d82611e4e565b9050919050565b6000611e1f82611e4e565b9050919050565b60008115159050919050565b6000819050919050565b6000611e4782611e02565b9050919050565b600073ffffffffffffffffffffffffffffffffffffffff82169050919050565b6000819050919050565b600060ff82169050919050565b6000611e9082611ecd565b9050919050565b6000611ea282611ea9565b9050919050565b6000611eb482611e4e565b9050919050565b6000611ec682611e6e565b9050919050565b6000611ed882611edf565b9050919050565b6000611eea82611e4e565b9050919050565b82818337600083830152505050565b60005b83811015611f1e578082015181840152602081019050611f03565b83811115611f2d576000848401525b50505050565b6000611f3e82611f4f565b9050919050565b6000819050919050565b6000611f5a82611fd0565b9050919050565b7f4e487b7100000000000000000000000000000000000000000000000000000000600052601160045260246000fd5b7f4e487b7100000000000000000000000000000000000000000000000000000000600052604160045260246000fd5b6000601f19601f8301169050919050565b60008160601b9050919050565b611fe681611e02565b8114611ff157600080fd5b50565b611ffd81611e14565b811461200857600080fd5b50565b61201481611e26565b811461201f57600080fd5b50565b61202b81611e32565b811461203657600080fd5b50565b61204281611e3c565b811461204d57600080fd5b50565b61205981611e6e565b811461206457600080fd5b50565b61207081611e78565b811461207b57600080fd5b5056fe4d6574615472616e73616374696f6e2875696e74323536206e6f6e63652c616464726573732066726f6d2c62797465732066756e6374696f6e5369676e617475726529a2646970667358221220ec4b5f9ce4fe94e9f52e7887047fc3b61f25139388f9158ee477b88a23dd23ee64736f6c63430008000033454950373132446f6d61696e28737472696e67206e616d652c737472696e672076657273696f6e2c6164647265737320766572696679696e67436f6e74726163742c627974657333322073616c7429",
  "immutableReferences": {},
  "source": "// SPDX-License-Identifier: MIT\r\npragma solidity 0.8.0;\r\n\r\nimport \"./TipToken.sol\";\r\nimport \"./EIP712MetaTransaction.sol\";\r\n\r\ncontract TipOff is EIP712MetaTransaction(\"TipOff\", \"1\") {\r\n    event transferred(address sender, address receiver, uint amount);\r\n    address payable admin;\r\n    mapping(uint => TipToken) public tokencontractinstances;\r\n    uint public contractsregistered = 0;\r\n\r\n    mapping(string => address) public registeredTippers;\r\n    struct Tipof {\r\n        uint tipid;\r\n        address payable tipsender;\r\n    }\r\n\r\n    mapping(uint => Tipof) public history;\r\n\r\n    constructor() {\r\n        admin = payable(msg.sender);\r\n    }\r\n\r\n    function swapper(\r\n        uint instance1,\r\n        uint instance2,\r\n        uint amounttoswap,\r\n        address beneficiary\r\n    ) public payable {\r\n        tokencontractinstances[instance1].transfer_From(\r\n            beneficiary,\r\n            admin,\r\n            amounttoswap\r\n        );\r\n        tokencontractinstances[instance2].transfer_From(\r\n            admin,\r\n            beneficiary,\r\n            amounttoswap\r\n        );\r\n    }\r\n\r\n    function registerNewContract(TipToken tokenContract) public payable {\r\n        tokencontractinstances[contractsregistered] = tokenContract;\r\n        contractsregistered += 1;\r\n    }\r\n\r\n    function onboard(\r\n        uint instance,\r\n        string memory aadharhash,\r\n        address caller\r\n    ) public payable {\r\n        registeredTippers[aadharhash] = caller;\r\n        tokencontractinstances[instance].transfer_From(admin, caller, 10);\r\n        emit transferred(admin, caller, 10);\r\n    }\r\n\r\n    function checkIfAlreadyRegistered(\r\n        string memory aadharhash\r\n    ) public view returns (bool) {\r\n        address walletaddress = registeredTippers[aadharhash];\r\n        if (walletaddress == 0x0000000000000000000000000000000000000000) {\r\n            return false;\r\n        } else {\r\n            return true;\r\n        }\r\n    }\r\n\r\n    function tipoff(\r\n        uint instance,\r\n        uint tipid,\r\n        uint tipamt,\r\n        address payable tipper\r\n    ) public payable {\r\n        Tipof memory tipdata = Tipof(tipid, tipper);\r\n        history[tipid] = tipdata;\r\n        address contractadd = address(this);\r\n        tokencontractinstances[instance].transfer_From(\r\n            tipper,\r\n            contractadd,\r\n            tipamt\r\n        );\r\n        emit transferred(tipper, contractadd, tipamt);\r\n    }\r\n\r\n    function rejectTip(uint instance, uint tipamt) public payable {\r\n        address contractadd = address(this);\r\n        tokencontractinstances[instance].transfer_From(\r\n            contractadd,\r\n            admin,\r\n            tipamt\r\n        );\r\n        emit transferred(contractadd, admin, tipamt);\r\n    }\r\n\r\n    function approveTip(uint instance, uint tipid, uint tipamt) public payable {\r\n        Tipof memory tipdata = history[tipid];\r\n        address contractadd = address(this);\r\n\r\n        tokencontractinstances[instance].transfer_From(\r\n            contractadd,\r\n            tipdata.tipsender,\r\n            tipamt + 1\r\n        );\r\n        emit transferred(contractadd, tipdata.tipsender, tipamt + 1);\r\n    }\r\n}\r\n",
  "sourcePath": "C:\\Mansi\\hacks\\KhabriChain\\frontend\\now-ui-kit-react-main\\contracts\\TipOff.sol",
  "compiler": {
    "name": "solc",
    "version": "0.8.0+commit.c7dfd78e.Emscripten.clang"
  },
  "schemaVersion": "3.4.4",
  "updatedAt": "2023-03-11T04:22:37.224Z",
  "networkType": "ethereum",
  "devdoc": {
    "kind": "dev",
    "methods": {},
    "version": 1
  },
  "userdoc": {
    "kind": "user",
    "methods": {},
    "version": 1
  }
}