{
  "contractName": "TipToken",
  "abi": [
    {
      "inputs": [
        {
          "internalType": "uint256",
          "name": "_initialSupply",
          "type": "uint256"
        }
      ],
      "stateMutability": "nonpayable",
      "type": "constructor"
    },
    {
      "anonymous": false,
      "inputs": [
        {
          "indexed": true,
          "internalType": "address",
          "name": "_owner",
          "type": "address"
        },
        {
          "indexed": true,
          "internalType": "address",
          "name": "_spender",
          "type": "address"
        },
        {
          "indexed": false,
          "internalType": "uint256",
          "name": "_value",
          "type": "uint256"
        }
      ],
      "name": "Approval",
      "type": "event"
    },
    {
      "inputs": [
        {
          "internalType": "address",
          "name": "_spender",
          "type": "address"
        },
        {
          "internalType": "uint256",
          "name": "_value",
          "type": "uint256"
        }
      ],
      "name": "approve",
      "outputs": [
        {
          "internalType": "bool",
          "name": "success",
          "type": "bool"
        }
      ],
      "stateMutability": "nonpayable",
      "type": "function"
    },
    {
      "inputs": [
        {
          "internalType": "address",
          "name": "_to",
          "type": "address"
        },
        {
          "internalType": "uint256",
          "name": "_value",
          "type": "uint256"
        }
      ],
      "name": "transfer",
      "outputs": [
        {
          "internalType": "bool",
          "name": "success",
          "type": "bool"
        }
      ],
      "stateMutability": "nonpayable",
      "type": "function"
    },
    {
      "anonymous": false,
      "inputs": [
        {
          "indexed": true,
          "internalType": "address",
          "name": "_from",
          "type": "address"
        },
        {
          "indexed": true,
          "internalType": "address",
          "name": "_to",
          "type": "address"
        },
        {
          "indexed": false,
          "internalType": "uint256",
          "name": "_value",
          "type": "uint256"
        }
      ],
      "name": "Transfer",
      "type": "event"
    },
    {
      "inputs": [
        {
          "internalType": "address",
          "name": "_from",
          "type": "address"
        },
        {
          "internalType": "address",
          "name": "_to",
          "type": "address"
        },
        {
          "internalType": "uint256",
          "name": "_value",
          "type": "uint256"
        }
      ],
      "name": "transfer_From",
      "outputs": [
        {
          "internalType": "bool",
          "name": "success",
          "type": "bool"
        }
      ],
      "stateMutability": "nonpayable",
      "type": "function"
    },
    {
      "inputs": [
        {
          "internalType": "address",
          "name": "_from",
          "type": "address"
        },
        {
          "internalType": "address",
          "name": "_to",
          "type": "address"
        },
        {
          "internalType": "uint256",
          "name": "_value",
          "type": "uint256"
        }
      ],
      "name": "transferFrom",
      "outputs": [
        {
          "internalType": "bool",
          "name": "success",
          "type": "bool"
        }
      ],
      "stateMutability": "nonpayable",
      "type": "function"
    },
    {
      "inputs": [
        {
          "internalType": "address",
          "name": "",
          "type": "address"
        },
        {
          "internalType": "address",
          "name": "",
          "type": "address"
        }
      ],
      "name": "allowance",
      "outputs": [
        {
          "internalType": "uint256",
          "name": "",
          "type": "uint256"
        }
      ],
      "stateMutability": "view",
      "type": "function"
    },
    {
      "inputs": [
        {
          "internalType": "address",
          "name": "",
          "type": "address"
        }
      ],
      "name": "balanceOf",
      "outputs": [
        {
          "internalType": "uint256",
          "name": "",
          "type": "uint256"
        }
      ],
      "stateMutability": "view",
      "type": "function"
    },
    {
      "inputs": [],
      "name": "name",
      "outputs": [
        {
          "internalType": "string",
          "name": "",
          "type": "string"
        }
      ],
      "stateMutability": "view",
      "type": "function"
    },
    {
      "inputs": [],
      "name": "standard",
      "outputs": [
        {
          "internalType": "string",
          "name": "",
          "type": "string"
        }
      ],
      "stateMutability": "view",
      "type": "function"
    },
    {
      "inputs": [],
      "name": "symbol",
      "outputs": [
        {
          "internalType": "string",
          "name": "",
          "type": "string"
        }
      ],
      "stateMutability": "view",
      "type": "function"
    },
    {
      "inputs": [],
      "name": "totalSupply",
      "outputs": [
        {
          "internalType": "uint256",
          "name": "",
          "type": "uint256"
        }
      ],
      "stateMutability": "view",
      "type": "function"
    }
  ],
  "bytecode": "0x60806040526040518060400160405280600881526020017f546970546f6b656e000000000000000000000000000000000000000000000000815250600090805190602001906200005192919062000173565b506040518060400160405280600381526020017f5469700000000000000000000000000000000000000000000000000000000000815250600190805190602001906200009f92919062000173565b506040518060400160405280600d81526020017f546970546f6b656e2076312e300000000000000000000000000000000000000081525060029080519060200190620000ed92919062000173565b50348015620000fb57600080fd5b50604051620011613803806200116183398181016040528101906200012191906200023a565b80600460003373ffffffffffffffffffffffffffffffffffffffff1673ffffffffffffffffffffffffffffffffffffffff168152602001908152602001600020819055508060038190555050620002ef565b828054620001819062000270565b90600052602060002090601f016020900481019282620001a55760008555620001f1565b82601f10620001c057805160ff1916838001178555620001f1565b82800160010185558215620001f1579182015b82811115620001f0578251825591602001919060010190620001d3565b5b50905062000200919062000204565b5090565b5b808211156200021f57600081600090555060010162000205565b5090565b6000815190506200023481620002d5565b92915050565b6000602082840312156200024d57600080fd5b60006200025d8482850162000223565b91505092915050565b6000819050919050565b600060028204905060018216806200028957607f821691505b60208210811415620002a0576200029f620002a6565b5b50919050565b7f4e487b7100000000000000000000000000000000000000000000000000000000600052602260045260246000fd5b620002e08162000266565b8114620002ec57600080fd5b50565b610e6280620002ff6000396000f3fe608060405234801561001057600080fd5b506004361061009e5760003560e01c80635a3b7e42116100665780635a3b7e421461016f57806370a082311461018d57806395d89b41146101bd578063a9059cbb146101db578063dd62ed3e1461020b5761009e565b806306fdde03146100a3578063095ea7b3146100c157806318160ddd146100f157806323b872dd1461010f5780633ccc74851461013f575b600080fd5b6100ab61023b565b6040516100b89190610bff565b60405180910390f35b6100db60048036038101906100d69190610b51565b6102c9565b6040516100e89190610be4565b60405180910390f35b6100f96103bb565b6040516101069190610c21565b60405180910390f35b61012960048036038101906101249190610b02565b6103c1565b6040516101369190610be4565b60405180910390f35b61015960048036038101906101549190610b02565b610647565b6040516101669190610be4565b60405180910390f35b6101776107b1565b6040516101849190610bff565b60405180910390f35b6101a760048036038101906101a29190610a9d565b61083f565b6040516101b49190610c21565b60405180910390f35b6101c5610857565b6040516101d29190610bff565b60405180910390f35b6101f560048036038101906101f09190610b51565b6108e5565b6040516102029190610be4565b60405180910390f35b61022560048036038101906102209190610ac6565b610a4e565b6040516102329190610c21565b60405180910390f35b6000805461024890610d5d565b80601f016020809104026020016040519081016040528092919081815260200182805461027490610d5d565b80156102c15780601f10610296576101008083540402835291602001916102c1565b820191906000526020600020905b8154815290600101906020018083116102a457829003601f168201915b505050505081565b600081600560003373ffffffffffffffffffffffffffffffffffffffff1673ffffffffffffffffffffffffffffffffffffffff16815260200190815260200160002060008573ffffffffffffffffffffffffffffffffffffffff1673ffffffffffffffffffffffffffffffffffffffff168152602001908152602001600020819055508273ffffffffffffffffffffffffffffffffffffffff163373ffffffffffffffffffffffffffffffffffffffff167f8c5be1e5ebec7d5bd14f71427d1e84f3dd0314c0f7b2291e5b200ac8c7c3b925846040516103a99190610c21565b60405180910390a36001905092915050565b60035481565b6000600460008573ffffffffffffffffffffffffffffffffffffffff1673ffffffffffffffffffffffffffffffffffffffff1681526020019081526020016000205482111561040f57600080fd5b600560008573ffffffffffffffffffffffffffffffffffffffff1673ffffffffffffffffffffffffffffffffffffffff16815260200190815260200160002060003373ffffffffffffffffffffffffffffffffffffffff1673ffffffffffffffffffffffffffffffffffffffff1681526020019081526020016000205482111561049857600080fd5b81600460008673ffffffffffffffffffffffffffffffffffffffff1673ffffffffffffffffffffffffffffffffffffffff16815260200190815260200160002060008282546104e79190610cae565b9250508190555081600460008573ffffffffffffffffffffffffffffffffffffffff1673ffffffffffffffffffffffffffffffffffffffff168152602001908152602001600020600082825461053d9190610c58565b9250508190555081600560008673ffffffffffffffffffffffffffffffffffffffff1673ffffffffffffffffffffffffffffffffffffffff16815260200190815260200160002060003373ffffffffffffffffffffffffffffffffffffffff1673ffffffffffffffffffffffffffffffffffffffff16815260200190815260200160002060008282546105d09190610cae565b925050819055508273ffffffffffffffffffffffffffffffffffffffff168473ffffffffffffffffffffffffffffffffffffffff167fddf252ad1be2c89b69c2b068fc378daa952ba7f163c4a11628f55a4df523b3ef846040516106349190610c21565b60405180910390a3600190509392505050565b6000600460008573ffffffffffffffffffffffffffffffffffffffff1673ffffffffffffffffffffffffffffffffffffffff1681526020019081526020016000205482111561069557600080fd5b81600460008673ffffffffffffffffffffffffffffffffffffffff1673ffffffffffffffffffffffffffffffffffffffff16815260200190815260200160002060008282546106e49190610cae565b9250508190555081600460008573ffffffffffffffffffffffffffffffffffffffff1673ffffffffffffffffffffffffffffffffffffffff168152602001908152602001600020600082825461073a9190610c58565b925050819055508273ffffffffffffffffffffffffffffffffffffffff168473ffffffffffffffffffffffffffffffffffffffff167fddf252ad1be2c89b69c2b068fc378daa952ba7f163c4a11628f55a4df523b3ef8460405161079e9190610c21565b60405180910390a3600190509392505050565b600280546107be90610d5d565b80601f01602080910402602001604051908101604052809291908181526020018280546107ea90610d5d565b80156108375780601f1061080c57610100808354040283529160200191610837565b820191906000526020600020905b81548152906001019060200180831161081a57829003601f168201915b505050505081565b60046020528060005260406000206000915090505481565b6001805461086490610d5d565b80601f016020809104026020016040519081016040528092919081815260200182805461089090610d5d565b80156108dd5780601f106108b2576101008083540402835291602001916108dd565b820191906000526020600020905b8154815290600101906020018083116108c057829003601f168201915b505050505081565b600081600460003373ffffffffffffffffffffffffffffffffffffffff1673ffffffffffffffffffffffffffffffffffffffff16815260200190815260200160002054101561093357600080fd5b81600460003373ffffffffffffffffffffffffffffffffffffffff1673ffffffffffffffffffffffffffffffffffffffff16815260200190815260200160002060008282546109829190610cae565b9250508190555081600460008573ffffffffffffffffffffffffffffffffffffffff1673ffffffffffffffffffffffffffffffffffffffff16815260200190815260200160002060008282546109d89190610c58565b925050819055508273ffffffffffffffffffffffffffffffffffffffff163373ffffffffffffffffffffffffffffffffffffffff167fddf252ad1be2c89b69c2b068fc378daa952ba7f163c4a11628f55a4df523b3ef84604051610a3c9190610c21565b60405180910390a36001905092915050565b6005602052816000526040600020602052806000526040600020600091509150505481565b600081359050610a8281610dfe565b92915050565b600081359050610a9781610e15565b92915050565b600060208284031215610aaf57600080fd5b6000610abd84828501610a73565b91505092915050565b60008060408385031215610ad957600080fd5b6000610ae785828601610a73565b9250506020610af885828601610a73565b9150509250929050565b600080600060608486031215610b1757600080fd5b6000610b2586828701610a73565b9350506020610b3686828701610a73565b9250506040610b4786828701610a88565b9150509250925092565b60008060408385031215610b6457600080fd5b6000610b7285828601610a73565b9250506020610b8385828601610a88565b9150509250929050565b610b9681610cf4565b82525050565b6000610ba782610c3c565b610bb18185610c47565b9350610bc1818560208601610d2a565b610bca81610ded565b840191505092915050565b610bde81610d20565b82525050565b6000602082019050610bf96000830184610b8d565b92915050565b60006020820190508181036000830152610c198184610b9c565b905092915050565b6000602082019050610c366000830184610bd5565b92915050565b600081519050919050565b600082825260208201905092915050565b6000610c6382610d20565b9150610c6e83610d20565b9250827fffffffffffffffffffffffffffffffffffffffffffffffffffffffffffffffff03821115610ca357610ca2610d8f565b5b828201905092915050565b6000610cb982610d20565b9150610cc483610d20565b925082821015610cd757610cd6610d8f565b5b828203905092915050565b6000610ced82610d00565b9050919050565b60008115159050919050565b600073ffffffffffffffffffffffffffffffffffffffff82169050919050565b6000819050919050565b60005b83811015610d48578082015181840152602081019050610d2d565b83811115610d57576000848401525b50505050565b60006002820490506001821680610d7557607f821691505b60208210811415610d8957610d88610dbe565b5b50919050565b7f4e487b7100000000000000000000000000000000000000000000000000000000600052601160045260246000fd5b7f4e487b7100000000000000000000000000000000000000000000000000000000600052602260045260246000fd5b6000601f19601f8301169050919050565b610e0781610ce2565b8114610e1257600080fd5b50565b610e1e81610d20565b8114610e2957600080fd5b5056fea2646970667358221220eebb42c57093465081acdf1978c1b2102de016c3cf48e40ecf420bdb8d330cca64736f6c63430008000033",
  "immutableReferences": {},
  "source": "// SPDX-License-Identifier: MIT\r\npragma solidity 0.8.0;\r\n\r\ncontract TipToken {\r\n    string public name = \"TipToken\";\r\n    string public symbol = \"Tip\";\r\n    string public standard = \"TipToken v1.0\";\r\n    uint256 public totalSupply;\r\n\r\n    event Transfer(address indexed _from, address indexed _to, uint256 _value);\r\n\r\n    event Approval(\r\n        address indexed _owner,\r\n        address indexed _spender,\r\n        uint256 _value\r\n    );\r\n\r\n    mapping(address => uint256) public balanceOf;\r\n    mapping(address => mapping(address => uint256)) public allowance;\r\n\r\n    constructor(uint256 _initialSupply) {\r\n        balanceOf[msg.sender] = _initialSupply;\r\n        totalSupply = _initialSupply;\r\n    }\r\n\r\n    function transfer(\r\n        address _to,\r\n        uint256 _value\r\n    ) public returns (bool success) {\r\n        require(balanceOf[msg.sender] >= _value);\r\n\r\n        balanceOf[msg.sender] -= _value;\r\n        balanceOf[_to] += _value;\r\n\r\n        emit Transfer(msg.sender, _to, _value);\r\n\r\n        return true;\r\n    }\r\n\r\n    function approve(\r\n        address _spender,\r\n        uint256 _value\r\n    ) public returns (bool success) {\r\n        allowance[msg.sender][_spender] = _value;\r\n\r\n        emit Approval(msg.sender, _spender, _value);\r\n\r\n        return true;\r\n    }\r\n\r\n    function transfer_From(\r\n        address _from,\r\n        address _to,\r\n        uint256 _value\r\n    ) public returns (bool success) {\r\n        require(_value <= balanceOf[_from]);\r\n        //require(_value <= allowance[_from][msg.sender]);\r\n\r\n        balanceOf[_from] -= _value;\r\n        balanceOf[_to] += _value;\r\n\r\n        //allowance[_from][msg.sender] -= _value;\r\n\r\n        emit Transfer(_from, _to, _value);\r\n\r\n        return true;\r\n    }\r\n\r\n    function transferFrom(\r\n        address _from,\r\n        address _to,\r\n        uint256 _value\r\n    ) public returns (bool success) {\r\n        require(_value <= balanceOf[_from]);\r\n        require(_value <= allowance[_from][msg.sender]);\r\n\r\n        balanceOf[_from] -= _value;\r\n        balanceOf[_to] += _value;\r\n\r\n        allowance[_from][msg.sender] -= _value;\r\n\r\n        emit Transfer(_from, _to, _value);\r\n\r\n        return true;\r\n    }\r\n}\r\n",
  "sourcePath": "C:\\Mansi\\hacks\\KhabriChain\\frontend\\now-ui-kit-react-main\\contracts\\TipToken.sol",
  "compiler": {
    "name": "solc",
    "version": "0.8.0+commit.c7dfd78e.Emscripten.clang"
  },
  "schemaVersion": "3.4.4",
  "updatedAt": "2023-03-11T04:22:37.209Z",
  "networkType": "ethereum",
  "devdoc": {
    "kind": "dev",
    "methods": {},
    "version": 1
  },
  "userdoc": {
    "kind": "user",
    "methods": {},
    "version": 1
  }
}